{
  "contractName": "Voting",
  "abi": [
    {
      "anonymous": false,
      "inputs": [
        {
          "indexed": true,
          "internalType": "uint256",
          "name": "candidateId",
          "type": "uint256"
        }
      ],
      "name": "Voted",
      "type": "event"
    },
    {
      "constant": true,
      "inputs": [
        {
          "internalType": "uint256",
          "name": "",
          "type": "uint256"
        }
      ],
      "name": "candidates",
      "outputs": [
        {
          "internalType": "uint256",
          "name": "id",
          "type": "uint256"
        },
        {
          "internalType": "string",
          "name": "name",
          "type": "string"
        },
        {
          "internalType": "string",
          "name": "party",
          "type": "string"
        },
        {
          "internalType": "uint256",
          "name": "voteCount",
          "type": "uint256"
        }
      ],
      "payable": false,
      "stateMutability": "view",
      "type": "function"
    },
    {
      "constant": true,
      "inputs": [],
      "name": "countCandidates",
      "outputs": [
        {
          "internalType": "uint256",
          "name": "",
          "type": "uint256"
        }
      ],
      "payable": false,
      "stateMutability": "view",
      "type": "function"
    },
    {
      "constant": true,
      "inputs": [
        {
          "internalType": "address",
          "name": "",
          "type": "address"
        }
      ],
      "name": "voters",
      "outputs": [
        {
          "internalType": "bool",
          "name": "",
          "type": "bool"
        }
      ],
      "payable": false,
      "stateMutability": "view",
      "type": "function"
    },
    {
      "constant": true,
      "inputs": [],
      "name": "votingEnd",
      "outputs": [
        {
          "internalType": "uint256",
          "name": "",
          "type": "uint256"
        }
      ],
      "payable": false,
      "stateMutability": "view",
      "type": "function"
    },
    {
      "constant": true,
      "inputs": [],
      "name": "votingStart",
      "outputs": [
        {
          "internalType": "uint256",
          "name": "",
          "type": "uint256"
        }
      ],
      "payable": false,
      "stateMutability": "view",
      "type": "function"
    },
    {
      "constant": false,
      "inputs": [
        {
          "internalType": "string",
          "name": "_name",
          "type": "string"
        },
        {
          "internalType": "string",
          "name": "_party",
          "type": "string"
        }
      ],
      "name": "addCandidate",
      "outputs": [
        {
          "internalType": "uint256",
          "name": "",
          "type": "uint256"
        }
      ],
      "payable": false,
      "stateMutability": "nonpayable",
      "type": "function"
    },
    {
      "constant": false,
      "inputs": [
        {
          "internalType": "uint256",
          "name": "_candidateID",
          "type": "uint256"
        }
      ],
      "name": "vote",
      "outputs": [],
      "payable": false,
      "stateMutability": "nonpayable",
      "type": "function"
    },
    {
      "constant": false,
      "inputs": [
        {
          "internalType": "uint256",
          "name": "_startDate",
          "type": "uint256"
        },
        {
          "internalType": "uint256",
          "name": "_endDate",
          "type": "uint256"
        }
      ],
      "name": "setDates",
      "outputs": [],
      "payable": false,
      "stateMutability": "nonpayable",
      "type": "function"
    },
    {
      "constant": true,
      "inputs": [],
      "name": "checkVote",
      "outputs": [
        {
          "internalType": "bool",
          "name": "",
          "type": "bool"
        }
      ],
      "payable": false,
      "stateMutability": "view",
      "type": "function"
    },
    {
      "constant": true,
      "inputs": [],
      "name": "getCountCandidates",
      "outputs": [
        {
          "internalType": "uint256",
          "name": "",
          "type": "uint256"
        }
      ],
      "payable": false,
      "stateMutability": "view",
      "type": "function"
    },
    {
      "constant": true,
      "inputs": [
        {
          "internalType": "uint256",
          "name": "_candidateID",
          "type": "uint256"
        }
      ],
      "name": "getCandidate",
      "outputs": [
        {
          "internalType": "uint256",
          "name": "",
          "type": "uint256"
        },
        {
          "internalType": "string",
          "name": "",
          "type": "string"
        },
        {
          "internalType": "string",
          "name": "",
          "type": "string"
        },
        {
          "internalType": "uint256",
          "name": "",
          "type": "uint256"
        }
      ],
      "payable": false,
      "stateMutability": "view",
      "type": "function"
    },
    {
      "constant": true,
      "inputs": [],
      "name": "getDates",
      "outputs": [
        {
          "internalType": "uint256",
          "name": "",
          "type": "uint256"
        },
        {
          "internalType": "uint256",
          "name": "",
          "type": "uint256"
        }
      ],
      "payable": false,
      "stateMutability": "view",
      "type": "function"
    }
  ],
  "bytecode": "0x608060405234801561001057600080fd5b50611060806100206000396000f3fe608060405234801561001057600080fd5b50600436106100d1576000357c01000000000000000000000000000000000000000000000000000000009004806335b8e8201161008e57806335b8e820146103ec57806385a386351461050d578063a3ec138d1461052b578063b0417e9814610587578063b86eda91146105a9578063dedf141e146105c7576100d1565b80630121b93f146100d65780630a84a21714610104578063101158af14610122578063164418131461014057806326541b56146101655780633477ee2e146102cb575b600080fd5b610102600480360360208110156100ec57600080fd5b81019080803590602001909291905050506105ff565b005b61010c610882565b6040518082815260200191505060405180910390f35b61012a61088c565b6040518082815260200191505060405180910390f35b610148610892565b604051808381526020018281526020019250505060405180910390f35b6102b56004803603604081101561017b57600080fd5b810190808035906020019064010000000081111561019857600080fd5b8201836020820111156101aa57600080fd5b803590602001918460018302840111640100000000831117156101cc57600080fd5b91908080601f016020809104026020016040519081016040528093929190818152602001838380828437600081840152601f19601f8201169050808301925050505050505091929192908035906020019064010000000081111561022f57600080fd5b82018360208201111561024157600080fd5b8035906020019184600183028401116401000000008311171561026357600080fd5b91908080601f016020809104026020016040519081016040528093929190818152602001838380828437600081840152601f19601f8201169050808301925050505050505091929192905050506108a3565b6040518082815260200191505060405180910390f35b6102f7600480360360208110156102e157600080fd5b81019080803590602001909291905050506109a5565b604051808581526020018060200180602001848152602001838103835286818151815260200191508051906020019080838360005b8381101561034757808201518184015260208101905061032c565b50505050905090810190601f1680156103745780820380516001836020036101000a031916815260200191505b50838103825285818151815260200191508051906020019080838360005b838110156103ad578082015181840152602081019050610392565b50505050905090810190601f1680156103da5780820380516001836020036101000a031916815260200191505b50965050505050505060405180910390f35b6104186004803603602081101561040257600080fd5b8101908080359060200190929190505050610b05565b604051808581526020018060200180602001848152602001838103835286818151815260200191508051906020019080838360005b8381101561046857808201518184015260208101905061044d565b50505050905090810190601f1680156104955780820380516001836020036101000a031916815260200191505b50838103825285818151815260200191508051906020019080838360005b838110156104ce5780820151818401526020810190506104b3565b50505050905090810190601f1680156104fb5780820380516001836020036101000a031916815260200191505b50965050505050505060405180910390f35b610515610d38565b6040518082815260200191505060405180910390f35b61056d6004803603602081101561054157600080fd5b81019080803573ffffffffffffffffffffffffffffffffffffffff169060200190929190505050610d3e565b604051808215151515815260200191505060405180910390f35b61058f610d5e565b604051808215151515815260200191505060405180910390f35b6105b1610db2565b6040518082815260200191505060405180910390f35b6105fd600480360360408110156105dd57600080fd5b810190808035906020019092919080359060200190929190505050610db8565b005b600060045411801561061357504260045411155b8015610620575042600354115b610692576040517f08c379a000000000000000000000000000000000000000000000000000000000815260040180806020018281038252601f8152602001807f566f74696e67206973206e6f742063757272656e746c79206163746976652e0081525060200191505060405180910390fd5b6000811180156106a457506002548111155b610716576040517f08c379a00000000000000000000000000000000000000000000000000000000081526004018080602001828103825260158152602001807f496e76616c69642063616e6469646174652049442e000000000000000000000081525060200191505060405180910390fd5b600160003373ffffffffffffffffffffffffffffffffffffffff1673ffffffffffffffffffffffffffffffffffffffff16815260200190815260200160002060009054906101000a900460ff16156107d6576040517f08c379a00000000000000000000000000000000000000000000000000000000081526004018080602001828103825260178152602001807f596f75206861766520616c726561647920766f7465642e00000000000000000081525060200191505060405180910390fd5b60018060003373ffffffffffffffffffffffffffffffffffffffff1673ffffffffffffffffffffffffffffffffffffffff16815260200190815260200160002060006101000a81548160ff02191690831515021790555060008082815260200190815260200160002060030160008154809291906001019190505550807f7f511e347bf51eed3be100b3194247d5207f05f3b33de7d31e3e8ee73199a04960405160405180910390a250565b6000600254905090565b60045481565b600080600454600354915091509091565b600080600454146108ff576040517f08c379a0000000000000000000000000000000000000000000000000000000008152600401808060200182810382526023815260200180610fe66023913960400191505060405180910390fd5b600260008154809291906001019190505550604051806080016040528060025481526020018481526020018381526020016000815250600080600254815260200190815260200160002060008201518160000155602082015181600101908051906020019061096f929190610ed5565b50604082015181600201908051906020019061098c929190610ed5565b5060608201518160030155905050600254905092915050565b6000602052806000526040600020600091509050806000015490806001018054600181600116156101000203166002900480601f016020809104026020016040519081016040528092919081815260200182805460018160011615610100020316600290048015610a575780601f10610a2c57610100808354040283529160200191610a57565b820191906000526020600020905b815481529060010190602001808311610a3a57829003601f168201915b505050505090806002018054600181600116156101000203166002900480601f016020809104026020016040519081016040528092919081815260200182805460018160011615610100020316600290048015610af55780601f10610aca57610100808354040283529160200191610af5565b820191906000526020600020905b815481529060010190602001808311610ad857829003601f168201915b5050505050908060030154905084565b600060608060008085118015610b1d57506002548511155b610b8f576040517f08c379a00000000000000000000000000000000000000000000000000000000081526004018080602001828103825260158152602001807f496e76616c69642063616e6469646174652049442e000000000000000000000081525060200191505060405180910390fd5b610b97610f55565b60008087815260200190815260200160002060405180608001604052908160008201548152602001600182018054600181600116156101000203166002900480601f016020809104026020016040519081016040528092919081815260200182805460018160011615610100020316600290048015610c575780601f10610c2c57610100808354040283529160200191610c57565b820191906000526020600020905b815481529060010190602001808311610c3a57829003601f168201915b50505050508152602001600282018054600181600116156101000203166002900480601f016020809104026020016040519081016040528092919081815260200182805460018160011615610100020316600290048015610cf95780601f10610cce57610100808354040283529160200191610cf9565b820191906000526020600020905b815481529060010190602001808311610cdc57829003601f168201915b50505050508152602001600382015481525050905080600001518160200151826040015183606001518292508191509450945094509450509193509193565b60035481565b60016020528060005260406000206000915054906101000a900460ff1681565b6000600160003373ffffffffffffffffffffffffffffffffffffffff1673ffffffffffffffffffffffffffffffffffffffff16815260200190815260200160002060009054906101000a900460ff16905090565b60025481565b600060045414610e13576040517f08c379a00000000000000000000000000000000000000000000000000000000081526004018080602001828103825260238152602001806110096023913960400191505060405180910390fd5b428211610e6b576040517f08c379a0000000000000000000000000000000000000000000000000000000008152600401808060200182810382526021815260200180610fc56021913960400191505060405180910390fd5b818111610ec3576040517f08c379a0000000000000000000000000000000000000000000000000000000008152600401808060200182810382526022815260200180610fa36022913960400191505060405180910390fd5b81600481905550806003819055505050565b828054600181600116156101000203166002900490600052602060002090601f016020900481019282601f10610f1657805160ff1916838001178555610f44565b82800160010185558215610f44579182015b82811115610f43578251825591602001919060010190610f28565b5b509050610f519190610f7d565b5090565b6040518060800160405280600081526020016060815260200160608152602001600081525090565b610f9f91905b80821115610f9b576000816000905550600101610f83565b5090565b9056fe456e642064617465206d75737420626520616674657220737461727420646174652e53746172742064617465206d75737420626520696e20746865206675747572652e566f74696e672068617320616c7265616479206265656e20636f6e666967757265642e566f74696e67206461746573206861766520616c7265616479206265656e207365742ea265627a7a723158207eb7fa24e2f6a756d61b96c5a50520f7dd09ecc9fb016583769efd233670732464736f6c634300050f0032",
  "source": "// SPDX-License-Identifier: MIT\r\n\r\n// File: contracts/Migrations.sol\r\n// This is a standard contract used by Truffle to manage migration history on the blockchain.\r\npragma solidity ^0.5.15;\r\n\r\ncontract Migrations {\r\n    address public owner;\r\n    uint public last_completed_migration;\r\n\r\n    modifier restricted() {\r\n        require(msg.sender == owner, \"Access restricted to owner\");\r\n        _;\r\n    }\r\n\r\n    constructor() public {\r\n        owner = msg.sender;\r\n    }\r\n\r\n    function setCompleted(uint completed) public restricted {\r\n        last_completed_migration = completed;\r\n    }\r\n\r\n    // This function is commented out as it points to an older pattern and can cause confusion.\r\n    // The core functionality for migrations is handled by Truffle's deployment scripts.\r\n    /*\r\n    function upgrade(address new_address) public restricted {\r\n        Migrations upgraded = Migrations(new_address);\r\n        upgraded.setCompleted(last_completed_migration);\r\n    }\r\n    */\r\n}\r\n\r\n\r\n// File: contracts/Voting.sol\r\n// This is the main smart contract for the decentralized voting application.\r\npragma solidity ^0.5.15;\r\n\r\ncontract Voting {\r\n\r\n    // Struct to hold information about each candidate\r\n    struct Candidate {\r\n        uint id;\r\n        string name;\r\n        string party;\r\n        uint voteCount;\r\n    }\r\n\r\n    // Mappings to store data\r\n    mapping(uint => Candidate) public candidates; // Maps candidate ID to Candidate struct\r\n    mapping(address => bool) public voters;     // Maps voter address to a boolean indicating if they have voted\r\n\r\n    // State variables\r\n    uint public countCandidates; // Total number of candidates\r\n    uint256 public votingEnd;    // Timestamp for when voting ends\r\n    uint256 public votingStart;  // Timestamp for when voting starts\r\n\r\n    // Event to be emitted when a vote is cast\r\n    event Voted(uint indexed candidateId);\r\n\r\n    // --- Functions ---\r\n\r\n    /**\r\n     * @dev Add a new candidate to the election.\r\n     * Can only be called before voting has started.\r\n     * @param _name The name of the candidate.\r\n     * @param _party The party of the candidate.\r\n     * @return The ID of the newly added candidate.\r\n     */\r\n    function addCandidate(string memory _name, string memory _party)\r\n        public\r\n        returns (uint)\r\n    {\r\n        require(votingStart == 0, \"Voting has already been configured.\");\r\n        countCandidates++;\r\n        candidates[countCandidates] = Candidate(countCandidates, _name, _party, 0);\r\n        return countCandidates;\r\n    }\r\n\r\n    /**\r\n     * @dev Allows a registered voter to cast their vote.\r\n     * @param _candidateID The ID of the candidate to vote for.\r\n     */\r\n    function vote(uint _candidateID) public {\r\n        // Require that voting is currently active\r\n        require(votingStart > 0 && votingStart <= now && votingEnd > now, \"Voting is not currently active.\");\r\n        \r\n        // Require that the candidate ID is valid\r\n        require(_candidateID > 0 && _candidateID <= countCandidates, \"Invalid candidate ID.\");\r\n        \r\n        // Require that the voter has not already voted\r\n        require(!voters[msg.sender], \"You have already voted.\");\r\n\r\n        // Record that the voter has voted\r\n        voters[msg.sender] = true;\r\n        \r\n        // Increment the vote count for the chosen candidate\r\n        candidates[_candidateID].voteCount++;\r\n\r\n        // Emit the Voted event\r\n        emit Voted(_candidateID);\r\n    }\r\n\r\n    /**\r\n     * @dev Set the start and end dates for the voting period.\r\n     * Can only be set once. Start date must be in the future. End date must be after start date.\r\n     * @param _startDate The UNIX timestamp for the start of voting.\r\n     * @param _endDate The UNIX timestamp for the end of voting.\r\n     */\r\n    function setDates(uint256 _startDate, uint256 _endDate) public {\r\n        // This check from the PDF '(_startDate + 1000000 > now)' is unusual. A simple ' _startDate > now ' is more common.\r\n        // We will implement a more standard check.\r\n        require(votingStart == 0, \"Voting dates have already been set.\");\r\n        require(_startDate > now, \"Start date must be in the future.\");\r\n        require(_endDate > _startDate, \"End date must be after start date.\");\r\n\r\n        votingStart = _startDate;\r\n        votingEnd = _endDate;\r\n    }\r\n\r\n    /**\r\n     * @dev Checks if the current message sender has already voted.\r\n     * @return A boolean indicating the voting status.\r\n     */\r\n    function checkVote() public view returns (bool) {\r\n        return voters[msg.sender];\r\n    }\r\n\r\n    /**\r\n     * @dev Gets the total number of registered candidates.\r\n     * @return The total candidate count.\r\n     */\r\n    function getCountCandidates() public view returns (uint) {\r\n        return countCandidates;\r\n    }\r\n\r\n    /**\r\n     * @dev Retrieves details for a specific candidate.\r\n     * @param _candidateID The ID of the candidate.\r\n     * @return The candidate's ID, name, party, and vote count.\r\n     */\r\n    function getCandidate(uint _candidateID)\r\n        public\r\n        view\r\n        returns (uint, string memory, string memory, uint)\r\n    {\r\n        require(_candidateID > 0 && _candidateID <= countCandidates, \"Invalid candidate ID.\");\r\n        Candidate memory c = candidates[_candidateID];\r\n        return (c.id, c.name, c.party, c.voteCount);\r\n    }\r\n\r\n    /**\r\n     * @dev Retrieves the start and end dates of the voting period.\r\n     * @return The start and end UNIX timestamps.\r\n     */\r\n    function getDates() public view returns (uint256, uint256) {\r\n        return (votingStart, votingEnd);\r\n    }\r\n}\r\n",
  "sourcePath": "C:\\Users\\Temp\\Documents\\GitHub\\New folder\\contracts\\voting.sol",
  "compiler": {
    "name": "solc",
    "version": "0.5.15+commit.6a57276f.Emscripten.clang"
  },
  "schemaVersion": "3.4.16",
  "updatedAt": "2025-07-29T16:51:07.079Z",
  "devdoc": {
    "methods": {
      "addCandidate(string,string)": {
        "details": "Add a new candidate to the election. Can only be called before voting has started.",
        "params": {
          "_name": "The name of the candidate.",
          "_party": "The party of the candidate."
        },
        "return": "The ID of the newly added candidate."
      },
      "checkVote()": {
        "details": "Checks if the current message sender has already voted.",
        "return": "A boolean indicating the voting status."
      },
      "getCandidate(uint256)": {
        "details": "Retrieves details for a specific candidate.",
        "params": {
          "_candidateID": "The ID of the candidate."
        },
        "return": "The candidate's ID, name, party, and vote count."
      },
      "getCountCandidates()": {
        "details": "Gets the total number of registered candidates.",
        "return": "The total candidate count."
      },
      "getDates()": {
        "details": "Retrieves the start and end dates of the voting period.",
        "return": "The start and end UNIX timestamps."
      },
      "setDates(uint256,uint256)": {
        "details": "Set the start and end dates for the voting period. Can only be set once. Start date must be in the future. End date must be after start date.",
        "params": {
          "_endDate": "The UNIX timestamp for the end of voting.",
          "_startDate": "The UNIX timestamp for the start of voting."
        }
      },
      "vote(uint256)": {
        "details": "Allows a registered voter to cast their vote.",
        "params": {
          "_candidateID": "The ID of the candidate to vote for."
        }
      }
    }
  },
  "userdoc": {
    "methods": {}
  }
}